:020000040800F2
:10000000000008243D470008A5360008AB3600086C
:10001000B1360008B7360008BD3600080000000001
:10002000000000000000000000000000B1F2010824
:10003000C33600080000000001F50108F9E20108DC
:100040008D4700088D4700088D4700088D47000840
:100050008D4700088D4700088D4700088D47000830
:100060008D470008D13600088D4700088D470008ED
:100070008D4700088D4700088D4700088D47000810
:100080008D4700088D4700088D4700088D47000800
:100090008D4700088D4700088D4700088D470008F0
:1000A0008D4700088D4700088D4700088D470008E0
:1000B000E13600088D4700088D4700088D4700088D
:1000C0008D4700088D4700088D4700088D470008C0
:1000D0008D4700088D4700088D4700088D470008B0
:1000E0008D4700088D470008000000008D4700087C
:1000F0008D4700088D4700088D4700088D47000890
:100100008D470008F53600088D4700088D47000828
:100110008D4700088D470008093700088D47000803
:100120008D4700088D4700088D4700088D4700085F
:100130008D4700088D4700088D4700088D4700084F
:100140008D4700088D4700080000000000000000F7
:100150008D4700088D4700088D4700088D4700082F
:100160008D4700088D4700088D4700088D4700081F
:100170008D4700081D3700088D470008000000006B
:100180008D4700088D4700088D4700088D470008FF
:100190008D4700088D4700088D4700088D470008EF
:1001A000313700088D470008453700088D470008A3
:1001B0008D4700088D4700088D4700088D470008CF
:1001C0008D4700088D4700088D4700088D470008BF
:1001D0008D4700088D4700088D4700088D470008AF
:1001E0008D4700088D4700088D4700088D4700089F
:1001F0008D4700088D4700088D4700088D4700088F
:100200008D4700088D4700088D4700088D4700087E
:100210008D4700088D4700088D4700088D4700086E
:100220008D470008593700086D3700088D470008D2
:100230008D4700088D4700088D4700088D4700084E
:100240008D4700088D4700088D4700088D4700083E
:100250008D4700088D4700088D4700088D4700082E
:100260008D4700088D4700088D4700088D4700081E
:100270008D4700088D4700088D4700088D4700080E
:100280008D4700088D4700088D47000800000000DA
:080290008D4700088D470008AE
:1002A00010B5054C237833B9044B13B10448AFF3B0
:1002B00000800123237010BD2401002400000000F1
:1002C000C444030808B5034B1BB103490348AFF30B
:1002D000008008BD0000000028010024C444030879
:1002E00001F0FF01102A2BDB10F0070F08D010F8E7
:1002F000013B013A8B422DD010F0070F42B3F6D1EB
:10030000F0B441EA012141EA014122F007047FF003
:1003100000070023F0E80256083C85EA010586EA5A
:10032000010685FA47F5A3FA87F586FA47F6A5FA96
:1003300087F68EB9EED1F0BC01F0FF0102F00702A2
:1003400032B110F8013B013A83EA010313B1F8D14D
:100350000020704701387047002D06BF354603382E
:10036000073815F0010F07D1013015F4807F02BF67
:10037000013015F4C03F0130F0BC0138704700BFB8
:1003800053B94AB9002908BF00281CBF4FF0FF31FC
:100390004FF0FF3000F070B9ADF1080C6DE904CEFC
:1003A00000F006F8DDF804E0DDE9022304B0704750
:1003B0002DE9F047089E0D4604460F46002B4AD112
:1003C0008A42944665D9B2FA82F343B102FA03FC39
:1003D000C3F120029F4020FA02F217439C404FEAEB
:1003E0001C4E1FFA8CF5B7FBFEF1220C0EFB1177A9
:1003F00042EA074201FB05F090420AD91CEB0202D7
:1004000001F1FF3780F01C81904240F219810239DE
:100410006244121AA4B2B2FBFEF00EFB102244EAB0
:10042000024400FB05F5A5420AD91CEB040400F1C7
:10043000FF3280F00781A54240F204816444023813
:1004400040EA0140641B00211EB1DC400023C6E9E4
:100450000043BDE8F0878B4208D9002E00F0ED8004
:100460000021C6E900050846BDE8F087B3FA83F12C
:10047000002949D1AB4202D3824200F2F880841AAB
:1004800065EB030201201746002EE2D0C6E90047C3
:10049000DFE702B9FFDEB2FA82F3002B40F0908072
:1004A0008A1A4FEA1C471FFA8CFE0121B2FBF7F5AE
:1004B00007FB1520220C42EA00420EFB05F0904299
:1004C00008D91CEB020205F1FF3802D2904200F27B
:1004D000CB804546121AA4B2B2FBF7F007FB1022FC
:1004E00044EA02440EFB00FEA64508D91CEB0404B6
:1004F00000F1FF3202D2A64500F2BB801046A4EB09
:100500000E0440EA05409FE7C1F120078B4022FA24
:1005100007FC4CEA030C05FA01F420FA07F3FD404E
:100520004FEA1C492343B5FBF9F81FFA8CFE09FB7F
:1005300018551C0C44EA054408FB0EF5A54202FAC6
:1005400001F200FA01F00BD91CEB040408F1FF3AA8
:1005500080F08880A54240F28580A8F102086444BA
:10056000641B9DB2B4FBF9F309FB134445EA044450
:1005700003FB0EFEA64508D91CEB040403F1FF356E
:100580006CD2A6456AD9023B644443EA0843A3FB04
:100590000295A4EB0E04AC42C846AE4656D353D0E7
:1005A00056B1B0EB080264EB0E0404FA07F7CA4038
:1005B000CC401743C6E9007418460021BDE8F08717
:1005C000C3F1200102FA03FC20FA01F225FA01F13D
:1005D0009D402A434FEA1C471FFA8CFEB1FBF7F0FF
:1005E00007FB1015110C41EA054100FB0EF58D4289
:1005F00004FA03F408D91CEB010100F1FF382FD2F3
:100600008D422DD902386144491B92B2B1FBF7F5F6
:1006100007FB151142EA014205FB0EF1914208D990
:100620001CEB020205F1FF3816D2914214D9023DAB
:100630006244521A45EA004138E73146304608E73D
:100640003946E6E61046FBE64845A9D2B9EB020872
:1006500065EB0C0E013BA3E74546EAE72B4694E722
:100660004046D1E7D0467BE7023D624432E7084688
:100670000AE76444023842E7704700BF80B58AB099
:1006800000AF07F11C0300221A605A609A603B46D3
:1006900000221A605A609A60DA601A615A619A619F
:1006A0002F4B304A1A602E4B00225A602C4B0022EE
:1006B0009A602B4B0022DA60294B04221A61284BE6
:1006C00000221A75264B00225A75254B01229A6189
:1006D000234B00221A77224B00225A62204B002221
:1006E0009A621F4B0022DA621D4B00221A631C4BD8
:1006F00000225A631A4B002283F8382018480AF067
:100700007FFD0346002B01D002F07DF80023FB6142
:1007100007F11C03194612480BF096FB0346002B09
:1007200001D002F070F8104B3B6006237B60002381
:10073000BB600E4BFB6004233B6100237B61002305
:100740007B763B46194606480AF0FCFE0346002B22
:1007500001D002F058F800BF2837BD4680BD00BF69
:100760004001002400200240020030040000FF4746
:1007700080B588B000AF3B1D00221A605A609A60B5
:10078000DA601A615A619A61274B284A1A60264B2F
:1007900000229A60244B0022DA60234B04221A6163
:1007A000214B00221A75204B00225A751E4B012244
:1007B0009A611D4B00221A771B4B00225A621A4B7A
:1007C00000229A62184B0022DA62174B00221A6349
:1007D000154B00225A63144B002283F8382012482C
:1007E0000AF00EFD0346002B01D002F00CF8104B6E
:1007F0007B600623BB600023FB6040F2FF733B611C
:1008000004237B610023BB6100237B773B1D1946DA
:1008100005480AF097FE0346002B01D001F0F3FFD4
:1008200000BF2037BD4680BDA401002400600258EF
:100830000200300480B586B000AF78607B681B682A
:10084000224A93420FD1224BD3F8D830204A43F0AA
:100850002003C2F8D8301E4BD3F8D83003F0200361
:100860007B617B692EE07B681B681A4A934229D121
:10087000174BD3F8E030164A43F08073C2F8E030EB
:10088000134BD3F8E03003F080733B613B69104BAE
:10089000D3F8E0300E4A43F00403C2F8E0300C4BCA
:1008A000D3F8E03003F00403FB60FB684FF0806195
:1008B0004FF080600AF002FB4FF000614FF00060E3
:1008C0000AF0FCFA00BF1837BD4680BD0020024088
:1008D000004402580060025880B500AF0D4B0E4A2C
:1008E0001A600C4B00221A710A4B00225A71094BF4
:1008F00000225A61074B00229A61064B01221A62BC
:1009000004480BF05FFC0346002B01D001F07BFF95
:1009100000BF80BD08020024004C025880B485B09E
:1009200000AF78607B681B680B4A93420ED10B4B7B
:10093000D3F8E030094A43F40023C2F8E030074B13
:10094000D3F8E03003F40023FB60FB6800BF1437EA
:10095000BD465DF8047B7047004C025800440258C5
:1009600080B58AB000AF3B1D24220021184632F02A
:100970001CFF174B174A1A6015480BF015FD03466C
:10098000002B01D001F03FFF00237B600023BB6000
:100990000023FB6001233B6100237B613B1D0022A0
:1009A00019460B480BF086FD0346002B01D001F0E1
:1009B0002AFF3B1D1022194605480BF07BFD03461C
:1009C000002B01D001F01FFF00BF2837BD4680BDBE
:1009D0002C0200240074004080B58AB000AF78601B
:1009E00007F1140300221A605A609A60DA601A61F3
:1009F0007B681B681C4A934231D11C4BD3F8E8300A
:100A00001A4A43F00053C2F8E830184BD3F8E830E4
:100A100003F000533B613B69144BD3F8E030134AB9
:100A200043F00103C2F8E030104BD3F8E03003F09C
:100A30000103FB60FB6830237B610323BB61002360
:100A4000FB6107F11403194609480DF017FA00225B
:100A5000052136200BF08EFB36200BF0A5FB00BFE6
:100A60002837BD4680BD00BF0074004000440258D6
:100A70000000025880B500AF194B1A4A1A60184B93
:100A800000225A60164B01229A60154B0022DA6050
:100A9000134B00225A64124B01229A64104B00221D
:100AA000DA640F4B00221A650D4B00225A650C4B7D
:100AB00000229A650A4B0022DA6509480BF042FED3
:100AC0000346002B01D001F09EFE012104480BF0EB
:100AD000ADFF0346002B01D001F095FE00BF80BDA5
:100AE000400200240010005280B584B000AF78604E
:100AF0007B681B680E4A934216D10E4BD3F8D43054
:100B00000C4A43F01003C2F8D4300A4BD3F8D43067
:100B100003F01003FB60FB68002205215A200BF054
:100B200029FB5A200BF040FB00BF1037BD4680BDAB
:100B3000001000520044025880B588B000AF7860C1
:100B40004023FB6001233B6100237B610023BB61E9
:100B500007F10C0319460B480DF090F900224021D3
:100B600008480DF05DFC14200AF078F901224021BC
:100B700004480DF055FC0A200AF070F900BF203738
:100B8000BD4680BD0000025880B5B2B002AF07F18B
:100B9000AC0300221A605A609A6007F1880324228D
:100BA0000021184632F001FE07F1700300221A609E
:100BB0005A609A60DA601A615A613B1D6C2200210A
:100BC000184632F0F2FD4AF2C223C7F8BC304FF2A9
:100BD0003023C7F8B8300020FFF7AEFFC44B4FF00A
:100BE000A0421A60C24B00225A60C14B04229A6094
:100BF000BF4B0122DA603E23C7F8AC300123C7F8AF
:100C0000B0300123C7F8B43007F1AC031946B84837
:100C10000BF0EAFF0346002B01D001F0F4FD0123A5
:100C2000C7F888300023C7F88C300023C7F890300D
:100C30000023C7F894300023C7F898300023C7F882
:100C40009C300023C7F8A0300023C7F8A43000234D
:100C5000C7F8A83007F188031946A5480CF056FCE0
:100C60000346002B01D001F0CEFD1C233B6720235F
:100C70007B670F23BB671823FB670023C7F880300F
:100C80000023C7F8843007F17003194698480CF028
:100C9000D3FB0346002B01D001F0B5FD042194489D
:100CA0000CF0A2FB0346002B01D001F0ACFD42F298
:100CB00010718F480CF050FD0346002B01D001F05D
:100CC000A2FD00218A480CF0ABF80346002B01D0AE
:100CD00001F099FD00237B600523BB600023FB60CE
:100CE00002233B614FF480637B610023BB610023DF
:100CF000FB6104233B6202237B620023BB62462329
:100D0000FB62C1233B6340F2AC637B630A23BB639A
:100D10001723FB630C233B644FF416737B6400239F
:100D2000BB640023FB6400233B654FF400537B65E9
:100D30004FF48053BB654FF40063FB654FF4806351
:100D40003B664FF400737B664FF48073BB660023F1
:100D5000FB663B1D194666480CF046F90346002B1E
:100D600001D001F050FD002161480CF015F9034657
:100D7000002B01D001F047FD00237B600523BB6001
:100D80000023FB6002233B614FF480637B610023FF
:100D9000BB610023FB6104233B6202237B620023CF
:100DA000BB62D7F8B830462203FB02F2D7F8BC305A
:100DB000B2FBF3F3FB62D7F8B82013469B00134451
:100DC0005B011A46D7F8BC30B2FBF3F33B63D7F8AC
:100DD000B83040F2865203FB02F2D7F8BC30B2FBC7
:100DE000F3F37B630A23BB631723FB630C233B648E
:100DF0004FF416737B644FF40043BB641723FB640A
:100E000000233B654FF400537B654FF48053BB6573
:100E10004FF40063FB654FF480633B664FF400734F
:100E20007B664FF48073BB660023FB663B1D19464F
:100E30002F480CF0D9F80346002B01D001F0E3FC59
:100E400000212B480CF0A8F80346002B01D001F03C
:100E5000DAFC27480CF022FC002300930123052232
:100E6000002123480CF056FC782009F0F7FF5A23A4
:100E700000938723232200211D480CF04BFC802384
:100E80000093B0232322002119480CF043FC502387
:100E90000093B2232322002115480CF03BFC4B2386
:100EA000009380232322002111480CF033FCFF2300
:100EB00000938123232200210D480CF02BFC1A23E0
:100EC000009382232322002109480CF023FC88236D
:100ED000009383232322002105480CF01BFC8F2361
:100EE000009384232322002101480CF013FC01E02D
:100EF000A8020024352300938523232200211448CF
:100F00000CF008FCB0230093862323220021104814
:100F10000CF000FC322009F0A1FF00230093112304
:100F2000052200210A480CF0F5FB782009F096FF15
:100F30000023009329230522002105480CF0EAFB39
:100F4000782009F08BFF00BFC037BD4680BD00BFD1
:100F5000A802002480B5B6B000AF786007F1100396
:100F6000C8220021184632F020FC7B681B68B3F1D0
:100F7000A04F20D14FF080624FF00003C7E9042357
:100F800000233B6607F11003184614F03BF90346B3
:100F9000002B01D001F037FC094BD3F8E430084AAC
:100FA00043F01003C2F8E430054BD3F8E43003F00B
:100FB0001003FB60FB6800BFD837BD4680BD00BF93
:100FC0000044025880B500AF2E4B2F4A1A602D4BBB
:100FD00000229A602B4B0022DA602A4B00221A74FE
:100FE000284B00225A74274B00229A74254B10225A
:100FF0005A61244B01229A61224B0222DA61214B71
:1010000002221A621F4B01225A621E4B01229A626F
:101010001C4B0122DA621B4B01221A63194B00227E
:101020005A63184B00229A63164B0022DA63154B61
:1010300000221A64134B04225A64124B00229A6451
:10104000104B0422DA640F4B00221A650D4B042268
:101050005A650C4B00229A650A4B0022DA65094B4F
:1010600000221A66074B00225A66064B04229A6633
:1010700004480CF09FFB0346002B01D001F0C3FB9A
:1010800000BF80BDC402002400A0004080B500AFB6
:101090002E4B2F4A1A602D4B00229A602B4B0022B8
:1010A000DA602A4B00221A74284B00225A74274B0C
:1010B00000229A74254B10225A61244B01229A6116
:1010C000224B0222DA61214B02221A621F4B0122BB
:1010D0005A621E4B01229A621C4B0122DA621B4BA0
:1010E00001221A63194B00225A63184B00229A639B
:1010F000164B0022DA63154B00221A64134B0422AC
:101100005A64124B00229A64104B0422DA640F4B8B
:1011100000221A650D4B04225A650C4B00229A6579
:101120000A4B0022DA65094B00221A66074B00229F
:101130005A66064B04229A6604480CF03BFB0346B1
:10114000002B01D001F05FFB00BF80BD64030024D1
:1011500000A4004080B5C0B000AF786007F1EC0398
:1011600000221A605A609A60DA601A6107F120035F
:10117000C8220021184632F018FB7B681B686A4AB7
:10118000934276D14FF400424FF00003C7E90823A1
:101190004FF08053C7F8943007F12003184614F03D
:1011A00031F80346002B01D001F02DFB5F4B1B688B
:1011B00001335E4A13605D4B1B68012B0ED15C4B03
:1011C000D3F8EC305A4A43F48073C2F8EC30584BF1
:1011D000D3F8EC3003F48073FB61FB69544BD3F814
:1011E000E030534A43F00203C2F8E030504BD3F8EA
:1011F000E03003F00203BB61BB694D4BD3F8E03034
:101200004B4A43F00103C2F8E030494BD3F8E030D9
:1012100003F001037B617B694FF40073C7F8EC3086
:101220000223C7F8F0300023C7F8F4300323C7F8CF
:10123000F8300923C7F8FC3007F1EC0319463D48A4
:101240000CF01CFE4FF40063C7F8EC300223C7F823
:10125000F0300023C7F8F4300323C7F8F83009232F
:10126000C7F8FC3007F1EC03194633480CF006FED2
:1012700055E07B681B68314A934250D14FF40042DD
:101280004FF00003C7E908234FF08053C7F89430AC
:1012900007F12003184613F0B5FF0346002B01D0D9
:1012A00001F0B1FA214B1B680133204A13601F4B38
:1012B0001B68012B0ED11E4BD3F8EC301C4A43F4B3
:1012C0008073C2F8EC301A4BD3F8EC3003F480731F
:1012D0003B613B69164BD3F8E030154A43F00203FB
:1012E000C2F8E030124BD3F8E03003F00203FB60A9
:1012F000FB6842F22003C7F8EC300223C7F8F03055
:101300000023C7F8F4300323C7F8F8300923C7F8DF
:10131000FC3007F1EC03194606480CF0AFFD00BFA6
:1013200007F58077BD4680BD00A00040040400247E
:1013300000440258000402580000025800A4004073
:1013400080B584B000AF786039604FF0FF33FB6048
:101350003B681B681946786800F044F80346002B88
:101360003AD1012009F07AFD3B681B68194678687C
:1013700000F038F8012009F071FD3B681B68194640
:10138000786800F053F80346002B25D1012009F0BE
:1013900065FD3B6819683B685B681A46786800F031
:1013A0009DF80346002B17D1012009F057FD39683D
:1013B000786800F05FF80346002B0DD1012009F09A
:1013C0004DFD3B689B681946786800F0ADF8034610
:1013D000002B01D10023FB60FB6818461037BD4687
:1013E00080BD000080B582B000AF786039600E4BE0
:1013F00001221A600C4B08225A600B4B01229A60A2
:10140000094B0022DA604FF6FF720749786818F03E
:10141000CBFA0346002B02D04FF0FF3300E000234D
:1014200018460837BD4680BD0804002480B582B048
:1014300000AF786039600E4B02221A600C4B082214
:101440005A600B4B08229A60094B0022DA604FF673
:10145000FF720749786818F0A7FA0346002B02D0FC
:101460004FF0FF3300E0002318460837BD4680BD2B
:101470000804002480B584B000AF786039603B6810
:10148000DA683B681B691A433B685B691A433B682F
:101490009B691A433B68DB691343FB600E4B0422D4
:1014A0001A600D4B08225A600B4B01229A600A4ABF
:1014B000FB68D3604FF6FF720749786818F074FA3A
:1014C0000346002B02D04FF0FF3300E00023184604
:1014D0001037BD4680BD00BF0804002480B584B02D
:1014E00000AFF860B9607A600E4A7B6813600D4BFC
:1014F00008225A600B4B08229A600A4B0022DA60DD
:101500004FF6FF720749F86818F04EFA0346002BB1
:1015100002D04FF0FF3300E0002318461037BD46DD
:1015200080BD00BF0804002480B582B000AF7860A1
:1015300039603968786818F06CFA0346002B02D0DD
:101540004FF0FF3304E00221786818F08AFA002394
:1015500018460837BD4680BD80B483B000AF7860C0
:1015600039607B6803F150431A463B68136000BF43
:101570000C37BD465DF8047B704780B483B000AF84
:1015800078607B6803F150431B6818460C37BD46F2
:101590005DF8047B704780B582B000AF00233B60EC
:1015A00000237B6009E07B689B003A68114618467F
:1015B000FFF7D2FF7B6801337B607B68B3F5001FC8
:1015C000F1D300237B600EE07B689B001846FFF799
:1015D000D4FF02463B689A4202D04FF0FF3307E047
:1015E0007B6801337B607B68B3F5001FECD300237D
:1015F00018460837BD4680BD80B588B000AF3B1D9A
:1016000000221A605A609A60DA601A615A619A611F
:10161000314B324A1A60304B01225A602E4B002265
:101620009A602D4B0022DA602B4B20221A612A4B44
:1016300040225A61284B4FF4C0729A61264B002217
:10164000DA61254B4FF400621A62234B4FF480524B
:101650005A62214B00229A6203237B600723BB60FE
:101660000423FB6007233B6104237B610323BB61ED
:101670000323FB613B1D1946174818F059F903462F
:10168000002B01D001F0BFF8154B08221A60144B53
:1016900003225A60124B40F203629A60104B002200
:1016A000DA600F4B00221A610D4B30225A610C4B4D
:1016B00000229A610A4B4FF40072DA610849064829
:1016C000FFF73EFE0346002B01D001F09CF800BF5F
:1016D0002037BD4680BD00BF1804002440410052A1
:1016E0005004002480B5BAB000AF07F1D403002243
:1016F0001A605A609A60DA601A61634B1B68002BAB
:1017000040F0BE80604B01221A6007F10803C82236
:101710000021184632F049F84FF080724FF0000374
:10172000C7E9022304233B61B4237B610423BB612B
:101730000223FB6103233B6280237B620023BB62A5
:1017400002233B6507F10803184613F05BFD0346CF
:10175000002B01D001F057F84C4BD3F8D4304B4A52
:1017600043F48053C2F8D430484BD3F8D43003F458
:1017700080537B607B6840F2FF63C7F8D43002235C
:10178000C7F8D8300123C7F8DC300323C7F8E030AE
:101790000C23C7F8E43007F1D40319463C480CF099
:1017A0006DFB4FF68373C7F8D4300223C7F8D830E7
:1017B0000123C7F8DC300323C7F8E0300C23C7F857
:1017C000E43007F1D403194632480CF057FB4FF6CA
:1017D000E073C7F8D4300223C7F8D8300123C7F824
:1017E000DC300323C7F8E0300C23C7F8E43007F1FE
:1017F000D403194628480CF041FB48F23713C7F8C8
:10180000D4300223C7F8D8300123C7F8DC300323D3
:10181000C7F8E0300C23C7F8E43007F1D4031946C9
:101820001E480CF02BFB4CF20373C7F8D430022394
:10183000C7F8D8300123C7F8DC300323C7F8E030FD
:101840000C23C7F8E43007F1D403194614480CF010
:1018500015FB4FF63F03C7F8D4300223C7F8D83042
:101860000123C7F8DC300323C7F8E0300C23C7F8A6
:10187000E43007F1D40319460A480CF0FFFA00E0FF
:1018800000BFE837BD4680BD4C0400240044025828
:101890000020025800100258001C0258001802587C
:1018A000000C02580014025880B582B000AF786076
:1018B000FFF718FF00BF0837BD4680BD80B400AFFA
:1018C00000BFBD465DF8047B704780B483B000AFB5
:1018D0007860396000BF0C37BD465DF8047B704707
:1018E00080B500AF0C4A00210C481CF0A0FD034657
:1018F0000B4A13600B4A00210B481CF098FD03466D
:101900000A4A13600A4A00210A481CF090FD034667
:10191000094A136000BF80BDC06303083D19000879
:1019200070040024E4630308A97F00087404002401
:1019300008640308AD4700087804002480B582B02D
:1019400000AF786007F05AF901201CF003FEFBE7B6
:1019500080B590B000AF07F12C0300221A605A60E6
:101960009A60DA601A61BC4BD3F8E030BA4A43F4AB
:101970008073C2F8E030B84BD3F8E03003F48073E2
:10198000BB62BB6AB44BD3F8E030B34A43F0020306
:10199000C2F8E030B04BD3F8E03003F002037B62D2
:1019A0007B6AAD4BD3F8E030AB4A43F04003C2F85A
:1019B000E030A94BD3F8E03003F040033B623B6AD0
:1019C000A54BD3F8E030A44A43F00803C2F8E03056
:1019D000A14BD3F8E03003F00803FB61FB699E4B99
:1019E000D3F8E0309C4A43F00403C2F8E0309A4B4D
:1019F000D3F8E03003F00403BB61BB69964BD3F826
:101A0000E030954A43F00103C2F8E030924BD3F83E
:101A1000E03003F001037B617B698F4BD3F8E0304A
:101A20008D4A43F01003C2F8E0308B4BD3F8E0301E
:101A300003F010033B613B69874BD3F8E030864AE3
:101A400043F08003C2F8E030834BD3F8E03003F07A
:101A50008003FB60FB68804BD3F8E0307E4A43F0A4
:101A60002003C2F8E0307C4BD3F8E03003F02003D1
:101A7000BB60BB68784BD3F8E030774A43F48063AF
:101A8000C2F8E030744BD3F8E03003F480637B603D
:101A90007B68714BD3F8E0306F4A43F40073C2F8AF
:101AA000E0306D4BD3F8E03003F400733B603B68EB
:101AB00000224FF4806169480CF0B2FC00224FF420
:101AC000804167480CF0ACFC00224FF4806165480F
:101AD0000CF0A6FC00224FF4007163480CF0A0FC4F
:101AE0000122402161480CF09BFC4FF48063FB62B3
:101AF00001233B6300237B630023BB6307F12C03BB
:101B0000194656480CF0BAF91023FB6200233B63D8
:101B100000237B6307F12C03194655480CF0AEF9FE
:101B200048F24003FB6200233B6300237B6307F121
:101B30002C0319464A480CF0A1F94FF48043FB628C
:101B400001233B6300237B630023BB6307F12C036A
:101B5000194643480CF092F90C23FB6200233B63C7
:101B600000237B6307F12C03194642480CF086F9E9
:101B70004FF48073FB6202233B6300237B630023EB
:101B8000BB630023FB6307F12C03194637480CF0B5
:101B900075F98823FB6200233B6300237B6307F115
:101BA0002C0319462D480CF069F94FF48063FB6251
:101BB00001233B6300237B630023BB6307F12C03FA
:101BC000194628480CF05AF94FF40073FB620123C0
:101BD0003B6300237B630023BB6307F12C0319469F
:101BE00021480CF04BF94FF48073FB6202233B63F6
:101BF00000237B630223BB630823FB6307F12C03F1
:101C0000194619480CF03AF90823FB624FF488137F
:101C10003B6301237B6307F12C03194616480CF044
:101C20002DF94023FB6201233B6300237B630023E8
:101C3000BB6307F12C0319460C480CF01FF9002276
:101C4000072109200AF096FA09200AF0ADFA00BF30
:101C50004037BD4680BD00BF0044025800180258FE
:101C600000080258001402580024025800000258CC
:101C70000004025800100258001C025880B500AF42
:101C80001B4B1C4A1A601A4B1B4A5A60184B002205
:101C90009A60174B0122DA60154B00221A61144B2F
:101CA00000225A61124B00229A61114B0022DA6124
:101CB0000F4B00221A620E480EF0FAF80346002B72
:101CC00001D000F0A0FD002109480EF0C1FC034640
:101CD000002B01D000F097FD002105480EF003FD18
:101CE0000346002B01D000F08EFD00BF80BD00BF79
:101CF0007C04002400540040DB3FB00080B500AFFE
:101D00001D4B1E4A1A601C4B1D4A5A601A4B00227A
:101D10009A60194B0122DA60174B00221A61164BA8
:101D200000225A61144B00229A61134B0022DA619F
:101D3000114B00221A6210480EF0BAF80346002B2D
:101D400001D000F060FD4FF480510B480EF080FC94
:101D50000346002B01D000F056FD002106480EF08E
:101D6000C2FC0346002B01D000F04DFD02200EF016
:101D700007FD00BF80BD00BFD00400240058004014
:101D8000551D500080B500AF1B4B1C4A1A601A4B02
:101D90001B4A5A60184B00229A60174B0122DA60E6
:101DA000154B00221A61144B00225A61124B00227B
:101DB0009A61114B0022DA610F4B00221A620E4821
:101DC0000EF076F80346002B01D000F01CFD002138
:101DD00009480EF03DFC0346002B01D000F013FD36
:101DE000002105480EF07FFC0346002B01D000F0D7
:101DF0000AFD00BF80BD00BF24050024001C005860
:101E0000DB3FB00080B5C2B000AF07F58473A3F527
:101E10008273186007F1F40300221A605A609A6016
:101E2000DA601A6107F12803C8220021184631F050
:101E3000BCFC07F58473A3F582731B681B688A4A90
:101E4000934246D14FF008024FF00003C7E90A233E
:101E50000023C7F8B03007F12803184613F0D2F971
:101E60000346002B01D000F0CEFC804BD3F8E030CD
:101E70007E4A43F00203C2F8E0307C4BD3F8E030F6
:101E800003F002037B627B6AC023C7F8F43012239D
:101E9000C7F8F8300123C7F8FC300323C7F8003136
:101EA0000423C7F8043107F1F403194670480BF016
:101EB000E5FF6E4BD3F8E8306C4A43F40013C2F8E8
:101EC000E8306A4BD3F8E83003F400133B623B6A16
:101ED000C4E007F58473A3F582731B681B68654A29
:101EE00093426BD14FF008024FF00003C7E90A2379
:101EF0000023C7F8B03007F12803184613F082F921
:101F00000346002B01D000F07EFC584BD3F8E030A4
:101F1000564A43F08003C2F8E030544BD3F8E03027
:101F200003F08003FB61FB69504BD3F8E0304F4A6C
:101F300043F00203C2F8E0304C4BD3F8E03003F03A
:101F40000203BB61BB691023C7F8F4301223C7F842
:101F5000F8300023C7F8FC300323C7F8003104230E
:101F6000C7F8043107F1F403194643480BF086FF24
:101F70004FF40063C7F8F4301223C7F8F830002399
:101F8000C7F8FC300323C7F800310423C7F8043135
:101F900007F1F403194636480BF070FF334BD3F8C2
:101FA000E830324A43F48003C2F8E8302F4BD3F8CC
:101FB000E83003F480037B617B694FE007F58473AD
:101FC000A3F582731B681B682C4A934246D14FF0DD
:101FD00010024FF00003C7E90A230023C7F8C430FA
:101FE00007F12803184613F00DF90346002B01D022
:101FF00000F009FC1D4BD3F8E0301C4A43F0080305
:10200000C2F8E030194BD3F8E03003F008033B612D
:102010003B694FF44053C7F8F4301223C7F8F83047
:102020000023C7F8FC300323C7F800310423C7F8A6
:10203000043107F1F403194611480BF01FFF0B4B55
:10204000D3F8F430094A43F08003C2F8F430074B68
:10205000D3F8F43003F08003FB60FB6800BF07F5A2
:102060008477BD4680BD00BF005400400044025844
:102070000004025800580040001C0258001C005880
:10208000000C025880B500AF064B074A1A6005489D
:102090000EF09AFB0346002B01D000F0B4FB00BF0A
:1020A00080BD00BF780500240030005280B584B0A8
:1020B00000AF78607B681B68564A934240F0A68068
:1020C000554BD3F8D430544A43F02003C2F8D430EF
:1020D000514BD3F8D43003F02003FB60FB684F4B27
:1020E0004F4A1A604D4B13225A604C4B00229A60A3
:1020F0004A4B8022DA60494B00221A61474B00228A
:102100005A61464B08229A61444B2022DA61434BC4
:1021100000221A62414B4FF000725A623F4B20225C
:102120009A623E4B0022DA623C4B4FF420321A6333
:102130003A4B00225A63394B00229A63374810F019
:10214000FBFE0346002B01D000F05DFB00220021C6
:10215000324810F03DFF0346002B01D000F053FB46
:102160007B682E4A5A632D4A7B6813642D4B2E4A96
:102170001A602C4B11225A602A4B00229A60294B7C
:102180008022DA60274B00221A61264B02225A6114
:10219000244B00229A61234B0022DA61214B8022DA
:1021A0001A62204B4FF000725A621E4B20229A6234
:1021B0001C4B4FF4A042DA621A4B4FF420321A63E0
:1021C000184B00225A63174B00229A63154810F0EF
:1021D000B3FE0346002B01D000F015FB00220021C6
:1021E000104810F0F5FE0346002B01D000F00BFB69
:1021F0007B680C4A1A630B4A7B6813640022072130
:10220000792009F0B7FF792009F0CEFF00BF103721
:10221000BD4680BD0030005200440258D005002465
:10222000C00100523C0600240002005280B500AFFD
:10223000164B174A1A60154B00225A60134B0022A6
:102240009A60124B0022DA60104B00221A610F4B89
:102250004FF6FF725A610D4B00221A620B4B00229F
:102260005A620A4B4FF400029A62084B0022DA626B
:10227000064B00221A63054810F016FA0346002B9D
:1022800001D000F0C0FA00BF80BD00BFA806002446
:102290000024005880B5BEB000AF786007F1E403B9
:1022A00000221A605A609A60DA601A6107F1180316
:1022B000C8220021184631F078FA7B681B68394A39
:1022C00093426BD14FF040024FF00003C7E9062361
:1022D0000023C7F8B83007F11803184612F092FF30
:1022E0000346002B01D000F08EFA2F4BD3F8F430C8
:1022F0002D4A43F40073C2F8F4302B4BD3F8F4307A
:1023000003F400737B617B69274BD3F8E030264AE6
:1023100043F00203C2F8E030234BD3F8E03003F07F
:1023200002033B613B69204BD3F8E0301E4A43F087
:102330000803C2F8E0301C4BD3F8E03003F0080388
:10234000FB60FB684FF48063C7F8E4300223C7F8F2
:10235000E8300023C7F8EC300023C7F8F03003233F
:10236000C7F8F43007F1E403194610480BF086FD76
:102370004FF40063C7F8E4300223C7F8E8300023C5
:10238000C7F8EC300023C7F8F0300323C7F8F43067
:1023900007F1E403194606480BF070FD00BFF8375B
:1023A000BD4680BD00240058004402580004025875
:1023B000000C025880B58EB000AF3B1D34220021C6
:1023C000184631F0F2F93A4B3A4A1A60384B00227B
:1023D0005A60374B00229A60354B0022DA60344B4A
:1023E00000221A61324B45225A61314B09229A610F
:1023F0002F4BE522DA612E4B20221A622C4B40F241
:10240000E5425A622A4B4FF41E729A62284B40F200
:102410008552DA62264B4FF421721A63244B002254
:1024200083F83420224B002283F83520204B0022F1
:1024300083F836201E4810F0E7F90346002B01D040
:1024400000F0E1F900237B604FF48063BB60002360
:10245000FB604FF416733B6101237B61FF23BB617B
:102460000023FB614FF480633B6205237B624FF0E6
:102470005043BB624FF48063FB624FF416733B63BF
:10248000002387F83430002387F83530002387F89D
:1024900036303B1D00221946054810F03DFB03462F
:1024A000002B01D000F0AFF900BF3837BD4680BD2A
:1024B000E00600240010005080B584B000AF7860C2
:1024C0007B681B680E4A934216D10E4BD3F8E4305A
:1024D0000C4A43F00803C2F8E4300A4BD3F8E43066
:1024E00003F00803FB60FB6800220521582009F077
:1024F00041FE582009F058FE00BF1037BD4680BD90
:10250000001000500044025880B500AF3E4B5B699C
:1025100003F40033002B1BD1BFF34F8F00BFBFF379
:102520006F8F00BF384B0022C3F85022BFF34F8F8C
:1025300000BFBFF36F8F00BF334B5B69324A43F478
:1025400000335361BFF34F8F00BFBFF36F8F00E0C5
:1025500000BF08F027FC00F05BF800F013F9FFF76C
:10256000F7F900F055F9FFF725FF01F0FBFCFFF745
:1025700009FCFEF7F5F9FEF77DFAFEF723FDFEF7FD
:1025800085FD00F021FE01F0C5F901F069FA01F0C6
:1025900091FC01F0DFFCFEF79FF9FFF7AFFBFFF7BF
:1025A00045FE00F067FE01F0B5FAFEF7EDFA00F027
:1025B000BFFCFFF721F8FFF765FD00F009FDFEF70E
:1025C0005DF8FEF7D5F801F059FEFFF757FB02F072
:1025D000E5F802F0DCF8FEF7DEFF00F005FC03464C
:1025E000002B01D100F092FB0021084817F028FDD4
:1025F0000346002B01D000F006F91BF097FEFFF711
:102600006FF91BF0D9FEFEE700ED00E0800A002420
:1026100080B59EB000AF07F12C034C220021184674
:1026200031F0C3F807F10C0320220021184631F0E5
:10263000BCF8022011F022F80023BB604E4BDB6A8D
:102640004D4A23F00103D3624B4BDB6A03F00103D5
:10265000BB604A4B9B69494A43F440439361474BF3
:102660009B6903F44043BB60BB6800BF434B9B695D
:1026700003F40053B3F5005FF8D1414BD3F8F430C5
:102680003F4A43F00203C2F8F4303D4BD3F8F43034
:1026900003F002037B607B6800233B60374B9B6940
:1026A000364A43F440439361344B9B6903F44043FF
:1026B0003B60314BDB6A304A43F00103D3622E4B5F
:1026C000DB6A03F001033B603B6800BF2B4B9B6957
:1026D00003F40053B3F5005FF8D12923FB624FF4F4
:1026E000A0233B6301233B6401237B6402233B65FE
:1026F00002237B650423BB65F023FB6502233B6655
:1027000018237B660223BB660823FB6600233B6716
:1027100000237B6707F12C03184611F0DFFC03460A
:10272000002B01D000F06FF83F23FB6003233B61D7
:1027300000237B610823BB614023FB6140233B6294
:102740004FF480637B624023BB6207F10C030421DA
:10275000184612F01FF90346002B01D000F053F881
:102760004FF480224FF44001002012F0C9FA00BF5C
:102770007837BD4680BD00BF0004005800480258AD
:102780000044025880B5B2B000AF3B46C8220021D9
:10279000184631F00AF8134A4FF00003C7E9002346
:1027A0000C23BB62E723FB6206233B6306237B63A8
:1027B0000623BB630023FB6300233B6400237B648D
:1027C0004FF48033C7F8A8303B46184612F01AFD84
:1027D0000346002B01D000F016F800BFC837BD46F5
:1027E00080BD00BF0000082080B582B000AF7860D7
:1027F0007B681B68B3F1804F01D108F00FFB00BF6D
:102800000837BD4680BD80B400AF72B600BFFEE79A
:1028100080B582B000AF0D4BD3F8D4300B4A43F0F3
:102820000103C2F8D430094BD3F8D43003F00103CC
:102830007B607B68002208217A2009F09BFC7A20CB
:1028400009F0B2FC00BF0837BD4680BD0044025805
:1028500080B500AF124B134A1A60114B01225A6027
:102860000F4B01229A600E4B1022DA600C4B1B2298
:102870001A610B4B4FF400725A61094B00229A61A6
:10288000074B0022DA61064B00221A62044810F05E
:102890005FFF0346002B01D0FFF7B5FF00BF80BDEF
:1028A000880700240050005280B5BEB000AF7860A9
:1028B00007F1E40300221A605A609A60DA601A6134
:1028C00007F11803C8220021184630F06EFF7B681C
:1028D0001B68554A934240F0A3804FF000724FF0BE
:1028E0000003C7E9062300237B6607F11803184697
:1028F00012F088FC0346002B01D0FFF784FF4B4BFE
:10290000D3F8D430494A43F48043C2F8D430474B1B
:10291000D3F8D43003F480437B617B69434BD3F815
:10292000E030424A43F04003C2F8E0303F4BD3F876
:10293000E03003F040033B613B693C4BD3F8E030AF
:102940003A4A43F02003C2F8E030384BD3F8E03085
:1029500003F02003FB60FB68344BD3F8E030334ACC
:1029600043F00203C2F8E030304BD3F8E03003F01C
:102970000203BB60BB684023C7F8E4300223C7F8FA
:10298000E8300023C7F8EC300323C7F8F0300A23FF
:10299000C7F8F43007F1E403194625480BF06EFA46
:1029A000C023C7F8E4300223C7F8E8300023C7F893
:1029B000EC300323C7F8F0300923C7F8F43007F1EF
:1029C000E40319461B480BF059FA4FF44073C7F85B
:1029D000E4300223C7F8E8300023C7F8EC300323C3
:1029E000C7F8F0300A23C7F8F43007F1E4031946BA
:1029F00010480BF043FA0423C7F8E4300223C7F869
:102A0000E8300023C7F8EC300323C7F8F03009237F
:102A1000C7F8F43007F1E403194607480BF02EFA23
:102A200000BFF837BD4680BD005000520044025838
:102A300000180258001402580004025880B582B0F1
:102A400000AF78607B681B680D4A934214D10D4B30
:102A5000D3F8D4300B4A23F48043C2F8D430402159
:102A600009480BF0BBFB4FF4707108480BF0B6FB44
:102A7000042107480BF0B2FB00BF0837BD4680BDFC
:102A80000050005200440258001802580014025826
:102A90000004025880B58EB000AF4FF48073BB6164
:102AA000B7233B600023FB6100233B6200237B6272
:102AB00000237B610023FB6200233B6300237B63D5
:102AC0003B4641F288321946094810F0D5FE0346CC
:102AD000002B01D0012307E000F04AF90346002B48
:102AE00001D0012300E0002318463837BD4680BDE1
:102AF0008807002480B58EB000AF4FF48073BB61AF
:102B000035233B600023FB6100233B6200237B6293
:102B100000237B610023FB6200233B6300237B6374
:102B20003B4641F288321946064810F0A5FE03469E
:102B3000002B01D0012300E0002318463837BD46A2
:102B400080BD00BF8807002480B596B000AF7860D4
:102B50007B68032B02D14FF4407301E04FF4807384
:102B6000BB6306233B620023FB6300233B6400231B
:102B70007B6400237B630023FB6400233B6500230D
:102B80007B6507F1200341F2883219461A4810F09C
:102B900073FE0346002B01D0012328E040F20223FC
:102BA000BB6040F20223FB600023BB6102237B6118
:102BB000F0233B614FF48003FB6105233B627B689C
:102BC000032B02D14FF0407301E04FF080737B6420
:102BD00007F1080207F1200141F28833064810F09E
:102BE000D8FF0346002B01D0012300E00023184644
:102BF0005837BD4680BD00BF8807002480B58EB021
:102C000000AF4FF44073BB6166233B600023FB6160
:102C100000233B6200237B6200237B610023FB6275
:102C200000233B6300237B633B4641F28832194615
:102C3000354810F021FE012008F010F94FF44073E0
:102C4000BB6199233B600023FB6100233B620023AF
:102C50007B6200237B610023FB6200233B63002334
:102C60007B633B4641F288321946274810F004FE48
:102C70000A2008F0F3F800F07BF84FF48073BB6192
:102C800066233B600023FB6100233B6200237B62E1
:102C900000237B610023FB6200233B6300237B63F3
:102CA0003B4641F288321946174810F0E5FD0120F5
:102CB00008F0D4F84FF48073BB6199233B60002384
:102CC000FB6100233B6200237B6200237B610023C6
:102CD000FB6200233B6300237B633B4641F2883267
:102CE0001946094810F0C8FD0A2008F0B7F800F0AE
:102CF0003FF80346002B01D0012300E000231846D3
:102D00003837BD4680BD00BF8807002480B590B02D
:102D100000AF4FF440733B626C23BB604FF44063E1
:102D20007B624FF04073FB620A23FB614FF4405318
:102D30007B610023BB6200237B630023BB63002312
:102D4000FB6300237B6000233B603A4607F10803E6
:102D50001946064810F094FF0346002B01D00123CA
:102D600000E0002318464037BD4680BD8807002498
:102D700080B594B000AF4FF440733B630523BB6153
:102D800000237B630023BB634FF04073FB6302238C
:102D9000FB6200237B640023BB640023FB640123EC
:102DA0003B6400233B6040F201137B6000233B61E6
:102DB0000223FB601023BB604FF480037B613A4623
:102DC00007F1180141F28833064810F0E2FE03468D
:102DD000002B01D0012300E0002318465037BD46E8
:102DE00080BD00BF8807002480B500AF194B1A4A88
:102DF0001A60184810F020FD0346002B01D0012373
:102E000026E0FFF725FDFFF7F9FE0346002B01D072
:102E100001231DE0FFF73EFE0346002B01D00123F6
:102E200016E000F01BF80346002B01D001230FE051
:102E3000084810F08DFC0346002B01D0012307E069
:102E4000FFF758FE0346002B01D0012300E00023CA
:102E5000184680BD880700240050005280B590B00D
:102E600000AF0023FB804FF440733B628523BB60BF
:102E700000237B620023BB624FF04073FB620023A0
:102E8000FB6102233B6300237B630023BB630023BE
:102E9000FB6307F1080341F288321946224810F01B
:102EA000EBFC0346002B01D0012338E0BB1D41F2AF
:102EB000883219461C4810F0CFFD0346002B01D084
:102EC00001232CE00020FFF73FFE0346002B01D03A
:102ED000012324E08123BB60FA8840F60F7313407E
:102EE0009AB2124B13439BB2FB8007F1080341F2E5
:102EF000883219460C4810F0BFFC0346002B01D065
:102F000001230CE0BB1D41F288321946064810F03F
:102F100011FD0346002B01D0012300E000231846D9
:102F20004037BD4680BD00BF88070024A0A0FFFF3A
:102F300080B500AF074B084A1A60064B00225A6062
:102F4000044814F09DFE0346002B01D0FFF75BFC04
:102F500000BF80BDD40700240018024880B5B6B079
:102F600000AF786007F11003C8220021184630F046
:102F70001CFC7B681B68144A934221D14FF4003239
:102F80004FF00003C7E904230023C7F8943007F18A
:102F90001003184612F036F90346002B01D0FFF754
:102FA00032FC0A4BD3F8DC30084A43F04003C2F845
:102FB000DC30064BD3F8DC3003F04003FB60FB68E9
:102FC00000BFD837BD4680BD0018024800440258F3
:102FD00080B500AF164B174A1A60154B00225A6095
:102FE000134B7F229A60124BFF22DA60104B4FF492
:102FF000C0021A610E4B00229A610D4B0022DA6169
:103000000B4B00225A610A4814F09CFE0346002B29
:1030100001D0FFF7F8FB00220021054814F0AAFFB9
:103020000346002B01D0FFF7EEFB00BF80BD00BFC1
:10303000E80700240040005880B5B4B000AF7860C5
:1030400007F10803C8220021184630F0AEFB7B6868
:103050001B68104A934219D14FF480024FF00003CD
:10306000C7E902234FF40073C7F8C03007F1080323
:10307000184612F0C7F80346002B01D0FFF7C3FB38
:10308000054B1B6F044A43F40043136700BFD0375E
:10309000BD4680BD004000580044025880B5BEB017
:1030A00000AF786007F1E40300221A605A609A606A
:1030B000DA601A6107F11803C8220021184630F0BF
:1030C00074FB7B681B683C4A934271D14FF4803299
:1030D0004FF00003C7E906230023FB6607F118033E
:1030E000184612F08FF80346002B01D0FFF78BFB38
:1030F000324BD3F8D430314A43F48033C2F8D43061
:103100002E4BD3F8D43003F480337B617B692B4B97
:10311000D3F8E030294A43F00403C2F8E030274BEB
:10312000D3F8E03003F004033B613B69234BD3F851
:10313000E030224A43F00803C2F8E0301F4BD3F8D6
:10314000E03003F00803FB60FB684FF4F853C7F866
:10315000E4300223C7F8E8300023C7F8EC3003233B
:10316000C7F8F0300C23C7F8F43007F1E403194630
:1031700013480AF083FE0423C7F8E4300223C7F89B
:10318000E8300023C7F8EC300323C7F8F0300C23F5
:10319000C7F8F43007F1E40319460A480AF06EFE56
:1031A00000220521312008F0E5FF312008F0FCFF66
:1031B00000BFF837BD4680BD007000520044025881
:1031C00000080258000C025880B500AF274B284A6F
:1031D0001A60264B4FF480025A60244B00229A60FA
:1031E000224B0722DA60214B00221A611F4B00227A
:1031F0005A611E4B4FF080629A611C4B4FF0805217
:10320000DA611A4B00221A62184B00225A62174BDD
:1032100000229A62154B0022DA62144B00225A6394
:10322000124B00229A63114B0022DA630F4B0022EB
:103230001A640E4B00225A640C4B00229A640B4B0A
:103240000022DA64094B00221A65084B00225A65F5
:10325000064B00229A65054816F02CFC0346002B0D
:1032600001D0FFF7D0FA00BF80BD00BF880800245E
:103270000030014080B500AF274B284A1A60264B2A
:103280004FF480025A60244B00229A60224B07229E
:10329000DA60214B00221A611F4B00225A611E4B3B
:1032A0004FF080629A611C4B4FF08052DA611A4BEA
:1032B00000221A62184B00225A62174B00229A62AF
:1032C000154B0022DA62144B00225A63124B002283
:1032D0009A63114B0022DA630F4B00221A640E4BE3
:1032E00000225A640C4B00229A640B4B0022DA64D1
:1032F000094B00221A65084B00225A65064B002232
:103300009A65054816F0D6FB0346002B01D0FFF75F
:103310007AFA00BF80BD00BF1009002400380040C9
:1033200080B5C2B000AF07F58473A3F5827318604F
:1033300007F1F40300221A605A609A60DA601A6199
:1033400007F12803C8220021184630F02EFA07F5AD
:103350008473A3F582731B681B68864A934240F00E
:1033600090804FF480524FF00003C7E90A230023F6
:10337000C7F88C3007F12803184611F043FF0346C5
:10338000002B01D0FFF73FFA7B4BD3F8F0307A4A9D
:1033900043F48053C2F8F030774BD3F8F03003F4A5
:1033A00080537B627B6A744BD3F8E030724A43F0FF
:1033B0004003C2F8E030704BD3F8E03003F0400334
:1033C0003B623B6A6C4BD3F8E0306B4A43F002033C
:1033D000C2F8E030684BD3F8E03003F00203FB6141
:1033E000FB69654BD3F8E030634A43F00803C2F849
:1033F000E030614BD3F8E03003F00803BB61BB69F8
:103400004FF40073C7F8F4300223C7F8F8300023F4
:10341000C7F8FC300323C7F800310523C7F804318F
:1034200007F1F403194655480AF028FD0823C7F8A8
:10343000F4300223C7F8F8300023C7F8FC30032328
:10344000C7F800310523C7F8043107F1F403194622
:103450004B480AF013FD8023C7F8F4300223C7F865
:10346000F8300023C7F8FC300323C7F800310523E8
:10347000C7F8043107F1F403194642480AF0FEFC8C
:1034800073E007F58473A3F582731B681B683E4ADB
:1034900093426AD14FF480524FF00003C7E90A23E8
:1034A0000023C7F88C3007F12803184611F0AAFE54
:1034B0000346002B01D0FFF7A6F92F4BD3F8E830D5
:1034C0002D4A43F48043C2F8E8302B4BD3F8E83060
:1034D00003F480437B617B69274BD3F8E030264AB5
:1034E00043F00103C2F8E030234BD3F8E03003F09F
:1034F00001033B613B69204BD3F8E0301E4A43F0A7
:103500000403C2F8E0301C4BD3F8E03003F00403AE
:10351000FB60FB684FF48053C7F8F4300223C7F810
:10352000F8300023C7F8FC300323C7F80031052327
:10353000C7F8043107F1F403194614480AF09EFC59
:103540000C23C7F8F4300223C7F8F8300023C7F87B
:10355000FC300323C7F800310523C7F8043107F115
:10356000F40319460A480AF089FC00BF07F584777E
:10357000BD4680BD0030014000440258001802588A
:1035800000040258000C02580038004000000258A5
:103590000008025880B582B000AF0C4BD3F8F4306D
:1035A0000A4A43F00203C2F8F430084BD3F8F4306F
:1035B00003F002037B607B6800220F216FF00100A3
:1035C00008F0D8FD00BF0837BD4680BD0044025852
:1035D00080B590B000AF78607B680F2B27D80022B1
:1035E00079681C2008F0C6FD1C2008F0DDFD294A82
:1035F0007B681360284BD3F8E830274A43F0010377
:10360000C2F8E830244BD3F8E83003F00103FB6044
:10361000FB6807F1100207F114031146184611F078
:10362000AFFDBB6ABB63BB6B002B06D101E001237E
:103630002CE011F079FDF86304E011F075FD03460C
:103640005B00FB63FB6B154AA2FB03239B0C013B56
:103650007B63134B4FF080421A60114B40F2E7320C
:10366000DA600F4A7B6B53600D4B00221A610C4BE2
:1036700000229A600A4816F05CFB0346002B04D136
:10368000074816F0ADFB034600E00123184640371B
:10369000BD4680BD380000240044025883DE1B4331
:1036A0009809002480B400AFFEE780B400AFFEE7C5
:1036B00080B400AFFEE780B400AFFEE780B400AF97
:1036C000FEE780B400AF00BFBD465DF8047B7047E5
:1036D00080B500AF08200AF0BCFE00BF80BD00002E
:1036E00080B500AF024816F0B9FD00BF80BD00BF35
:1036F0009809002480B500AF024814F025FF00BFF0
:1037000080BD00BF0C08002480B500AF024808F05F
:103710006DFE00BF80BD00BF2C02002480B500AF4D
:1037200002480BF01BF900BF80BD00BF94B7002416
:1037300080B500AF02480FF037F900BF80BD00BF71
:10374000E006002480B500AF024809F05FF800BF32
:1037500080BD00BF4002002480B500AF02480DF0DC
:103760001EFB00BF80BD00BF7805002480B500AF00
:1037700003480FF027FD03480FF024FD00BF80BD74
:10378000D00500243C06002480B400AF0123184675
:10379000BD465DF8047B704780B582B000AF7860AD
:1037A000396030F00DF9034616221A604FF0FF33EE
:1037B00018460837BD4680BD80B582B000AF78603E
:1037C0004FF0FF317868FFF7E7FFFEE780B586B07E
:1037D00000AFF860B9607A6000237B610AE0AFF364
:1037E00000800146BB685A1CBA60CAB21A707B6975
:1037F00001337B617A697B689A42F0DB7B6818460B
:103800001837BD4680BD80B586B000AFF860B9609E
:103810007A6000237B6109E0BB685A1CBA601B78A0
:103820001846AFF300807B6901337B617A697B685E
:103830009A42F1DB7B6818461837BD4680BD80B4DC
:1038400083B000AF78604FF0FF3318460C37BD46A9
:103850005DF8047B704780B483B000AF7860396056
:103860003B684FF400525A60002318460C37BD469F
:103870005DF8047B704780B483B000AF78600123AB
:1038800018460C37BD465DF8047B704780B485B0A0
:1038900000AFF860B9607A60002318461437BD465F
:1038A0005DF8047B7047000080B586B000AF78609B
:1038B000144A154BD31A7B617B693B61134B1B6820
:1038C000002B02D1114B124A1A60104B1A687B6808
:1038D00013443A699A4207D230F072F803460C2238
:1038E0001A604FF0FF3309E0084B1B68FB60074B81
:1038F0001A687B681344054A1360FB68184618373A
:10390000BD4680BD0000082400800000E4090024BA
:1039100088E7022480B596B000AF07F14C0300227F
:103920001A605A609A6007F1300300221A605A60E8
:103930009A60DA601A615A619A613B1D2C2200215B
:1039400018462FF032FF444B444A1A60424B002283
:103950005A60414B00229A603F4B4FF6FF72DA608B
:103960003D4B00221A613C4B00225A613A4B002227
:103970009A61394816F00DFB0346002B01D0FEF783
:1039800042FF354816F0A4FA0346002B01D0FEF79B
:103990003AFF0023FB6400233B6500237B6507F1AE
:1039A0004C0319462C4817F0C5FA0346002B01D0EA
:1039B000FEF729FF60233B6300237B630023BB6387
:1039C0000023FB6300233B6400237B640023BB6470
:1039D00007F13003002219461F4816F0D9FD0346AF
:1039E000002B01D0FEF70FFF00233B6307F13003EC
:1039F00004221946184816F051FD0346002B01D049
:103A0000FEF701FF00237B600023BB600023FB6007
:103A100000233B6100237B614FF40053BB61002313
:103A2000FB6100233B624FF000737B620023BB62AB
:103A30000023FB623B1D1946074817F009FB0346AC
:103A4000002B01D0FEF7DFFE034800F085F900BF30
:103A50005837BD4680BD00BFE80900240000014082
:103A600080B58AB000AF07F11C0300221A605A60CB
:103A70009A603B4600221A605A609A60DA601A61C6
:103A80005A619A61214B224A1A60204B00225A60E7
:103A90001E4B00229A601D4B4FF0FF32DA601B4B29
:103AA00000221A61194B00229A61184816F071FA27
:103AB0000346002B01D0FEF7A6FE0023FB61002386
:103AC0007B6207F11C031946104817F033FA0346CE
:103AD000002B01D0FEF797FE60233B6000237B6044
:103AE0000023BB6000233B613B460C22194607487C
:103AF00016F04EFD0346002B01D0FEF784FE03486E
:103B000000F02AF900BF2837BD4680BD340A0024E2
:103B1000000C004080B596B000AF07F14C030022C6
:103B20001A605A609A6007F1300300221A605A60E6
:103B30009A60DA601A615A619A613B1D2C22002159
:103B400018462FF032FE354B354A1A60334B0422AB
:103B50005A60324B00229A60304B40F2E732DA6012
:103B60002E4B00221A612D4B00225A612B4B002252
:103B70009A612A4816F00DFA0346002B01D0FEF791
:103B800042FE0023FB6400237B6507F14C031946CA
:103B9000224817F0CFF90346002B01D0FEF733FE81
:103BA00060233B6340F2E6337B630023BB63002367
:103BB000FB6300233B6400237B640023BB6407F1A9
:103BC000300300221946154816F0E2FC0346002B8C
:103BD00001D0FEF718FE00237B600023BB600023AA
:103BE000FB6000233B6100237B614FF40053BB610A
:103BF0000023FB610023FB623B1D1946074817F0B9
:103C000027FA0346002B01D0FEF7FDFD034800F024
:103C1000A3F800BF5837BD4680BD00BF800A00240E
:103C20000040014080B487B000AF78607B681B68BB
:103C3000204A93420FD1204BD3F8F0301E4A43F074
:103C40000103C2F8F0301C4BD3F8F03003F001034D
:103C50007B617B6928E07B681B68184A93420FD11F
:103C6000154BD3F8E830144A43F00803C2F8E830A3
:103C7000114BD3F8E83003F008033B613B6913E0D4
:103C80007B681B680E4A93420ED10B4BD3F8F03081
:103C9000094A43F48033C2F8F030074BD3F8F030D0
:103CA00003F48033FB60FB6800BF1C37BD465DF842
:103CB000047B70470000014000440258000C0040A3
:103CC0000040014080B58AB000AF786007F114036E
:103CD00000221A605A609A60DA601A617B681B6879
:103CE0001A4A93422DD11A4BD3F8E830184A43F0C0
:103CF0000203C2F8E830164BD3F8E83003F00203B1
:103D00003B613B69124BD3F8E030114A43F00403A6
:103D1000C2F8E0300E4BD3F8E03003F00403FB6050
:103D2000FB6880237B610223BB610023FB610023CE
:103D30003B6202237B6207F11403194605480AF02F
:103D40009DF800BF2837BD4680BD00BF000400407D
:103D5000004402580008025880B58CB000AF78606B
:103D600007F11C0300221A605A609A60DA601A6137
:103D70007B681B68474A93423FD1474BD3F8E030FA
:103D8000454A43F48063C2F8E030434BD3F8E03057
:103D900003F48063BB61BB693F4BD3F8E0303E4A1C
:103DA00043F40073C2F8E0303B4BD3F8E03003F447
:103DB00000737B617B690223FB6102233B6200236A
:103DC0007B620023BB620123FB6207F11C031946DF
:103DD00032480AF053F84FF48063FB6102233B62E0
:103DE00000237B620023BB620123FB6207F11C03FB
:103DF00019462B480AF042F848E07B681B68294ABC
:103E000093421FD1244BD3F8E030234A43F00103FF
:103E1000C2F8E030204BD3F8E03003F001033B61FF
:103E20003B690823FB6102233B6200237B62002382
:103E3000BB620223FB6207F11C0319461A480AF011
:103E40001DF823E07B681B68184A93421ED1124B71
:103E5000D3F8E030104A43F01003C2F8E0300E4BC4
:103E6000D3F8E03003F01003FB60FB683023FB6104
:103E700002233B6200237B620023BB620423FB62BC
:103E800007F11C0319460A4809F0F8FF00BF303754
:103E9000BD4680BD00000140004402580028025881
:103EA00000240258000C004000000258004001406D
:103EB0000010025880B500AF244B254A1A60234BEE
:103EC0004FF4E1325A60214B00229A601F4B0022CE
:103ED000DA601E4B00221A611C4B0C225A611B4BEC
:103EE00000229A61194B0022DA61184B00221A62F3
:103EF000164B00225A62154B00229A6200230022C0
:103F00000021124818F012F90346002B01D0FEF7E9
:103F10007AFC00210D4818F0ACF90346002B01D0C3
:103F2000FEF771FC0021094818F0E1F90346002B67
:103F300001D0FEF768FC054818F062F90346002B33
:103F400001D0FEF760FC00BF80BD00BFCC0A00249A
:103F5000004C004080B400AF00BFBD465DF8047B5C
:103F60007047000080B500AF224B234A1A60214BF6
:103F70004FF4E1325A601F4B00229A601D4B002221
:103F8000DA601C4B00221A611A4B0C225A61194B41
:103F900000229A61174B0022DA61164B00221A6246
:103FA000144B00225A62134B00229A62114817F0F8
:103FB000EBF80346002B01D0FEF725FC00210D484D
:103FC00018F057F90346002B01D0FEF71CFC002126
:103FD000084818F08CF90346002B01D0FEF713FCBB
:103FE000044818F00DF90346002B01D0FEF70BFC36
:103FF00000BF80BD600B00240010014080B5C2B03E
:1040000000AF07F58473A3F58273186007F1F4031A
:1040100000221A605A609A60DA601A6107F1280378
:10402000C822002118462FF0C0FB07F58473A3F5C2
:1040300082731B681B688A4A93426CD14FF002025C
:104040004FF00003C7E90A230023C7F8A43007F1A3
:104050002803184611F0D6F80346002B01D0FEF7CE
:10406000D2FB804BD3F8E8307E4A43F40023C2F8F9
:10407000E8307C4BD3F8E83003F400237B627B6AA2
:10408000784BD3F8E030774A43F00103C2F8E030D0
:10409000744BD3F8E03003F001033B623B6A714B91
:1040A000D3F8E0306F4A43F00203C2F8E0306D4BC2
:1040B000D3F8E03003F00203FB61FB6948F201032F
:1040C000C7F8F4300223C7F8F8300023C7F8FC30F3
:1040D0000223C7F800310823C7F8043107F1F403BD
:1040E0001946614809F0CAFE4FF48073C7F8F430EE
:1040F0000223C7F8F8300023C7F8FC300223C7F8C2
:1041000000310823C7F8043107F1F4031946574872
:1041100009F0B4FE9FE007F58473A3F582731B6872
:104120001B68534A934247D14FF001024FF00003FE
:10413000C7E90A230023C7F8A83007F12803184667
:1041400011F060F80346002B01D0FEF75CFB454BF5
:10415000D3F8F030434A43F01003C2F8F030414B3B
:10416000D3F8F03003F01003BB61BB693D4BD3F8CB
:10417000E0303C4A43F00103C2F8E030394BD3F859
:10418000E03003F001037B617B694FF4C063C7F843
:10419000F4300223C7F8F8300023C7F8FC300223BC
:1041A000C7F800310723C7F8043107F1F4031946B3
:1041B0002D4809F063FE4EE007F58473A3F5827382
:1041C0001B681B682B4A934245D14FF002024FF007
:1041D0000003C7E90A230023C7F8A43007F1280326
:1041E000184611F00FF80346002B01D0FEF70BFB29
:1041F0001C4BD3F8E8301B4A43F40033C2F8E830D4
:10420000184BD3F8E83003F400333B613B69154B9E
:10421000D3F8E030134A43F00803C2F8E030114B02
:10422000D3F8E03003F00803FB60FB687823C7F89D
:10423000F4300223C7F8F8300023C7F8FC3002231B
:10424000C7F800310723C7F8043107F1F403194612
:10425000094809F013FE00BF07F58477BD4680BD0D
:10426000004C00400044025800000258000402586C
:104270000010014000440040000C025880B500AF1F
:104280000449054819F0FEFF03461A46034B1A700D
:1042900000BF80BDF80B00242C640308F40B00243D
:1042A00080B582B000AF0023FB7100F085F80346B3
:1042B000012B01D0022312E00B4813F0D5FE034678
:1042C000FB71FB79002B09D14FF48041064814F0B3
:1042D0008BFD0346002B01D00123FB71FB791846AF
:1042E0000837BD4680BD00BF0C08002480B586B0ED
:1042F00000AFF860B9607A600023FB757B68BA682C
:10430000F968064813F0D0FF0346002B01D00123C3
:10431000FB75FB7D18461837BD4680BD0C08002490
:1043200080B586B000AFF860B9607A600023FB7595
:104330007B68BA68F968064814F05EF80346002BFB
:1043400001D00123FB75FB7D18461837BD4680BDA3
:104350000C08002480B500AF054814F057FE034652
:10436000042B14BF01230023DBB2184680BD00BF1D
:104370000C08002480B582B000AF786079680348EB
:1043800014F006FD00BF0837BD4680BD0C080024B0
:1043900080B582B000AF786000F0ACF900BF08379C
:1043A000BD4680BD80B582B000AF786000F0B4F942
:1043B00000BF0837BD4680BD80B582B000AF012385
:1043C000FB7100F00BF80346002B01D10023FB71B9
:1043D000FB79DBB218460837BD4680BD80B582B098
:1043E00000AF0123FB71082106480AF001F80346DB
:1043F000002B01D00023FB71FB7918460837BD461E
:1044000080BD00BF0010025880B584B000AF786056
:1044100019F0F8FFF86006E0FFF79CFF0346002B59
:1044200001D1002309E019F0EDFF0246FB68D31A21
:104430007A689A42F0D84FF0FF3318461037BD46DD
:1044400080BD000080B582B000AF0346FB710B4B0E
:1044500001221A70FFF77EFF0346002B07D1074B9E
:104460001B78DBB223F00103DAB2044B1A70034B62
:104470001B78DBB218460837BD4680BD0400002417
:1044800080B582B000AF0346FB711C4B01221A704D
:1044900019F070FF0346022B29D1FFF701FF0346F5
:1044A000002B07D1FB791846FFF7CCFF03461A46CD
:1044B000124B1A70114B1B78DBB2012B17D0104B2B
:1044C0001B68002B07D1002202210A201AF08AFA69
:1044D00003460B4A13600A4B1B68002B07D1074B9E
:1044E0001B78DBB243F00103DAB2044B1A70034BC2
:1044F0001B78DBB218460837BD4680BD0400002497
:10450000FC0B002480B582B000AF0346FB71FB7941
:104510001846FFF797FF034618460837BD4680BD8B
:1045200080B588B000AFB9607A603B600346FB732A
:104530000123FB7747F23050FFF766FF0346002B5D
:1045400001DAFB7F2FE03A687968B868FFF7CEFEA2
:104550000346BB77BB7F002B24D1154B186807F1AE
:10456000120147F2305300221AF010FBB861BB6908
:10457000002B17D17B8A012B14D119F043FF7861EE
:1045800007E0FFF7E7FE0346002B02D10023FB778D
:1045900008E019F037FF02467B69D31A47F22F5221
:1045A0009342EED9FB7F18462037BD4680BD00BF41
:1045B000FC0B002480B588B000AFB9607A603B6026
:1045C0000346FB730123FB7747F23050FFF71CFFD4
:1045D0000346002B01DAFB7F2DE03A687968B86862
:1045E000FFF79EFE0346002B24D1154B186807F1F8
:1045F000120147F2305300221AF0C8FAB861BB69C1
:10460000002B17D17B8A022B14D119F0FBFE7861A5
:1046100007E0FFF79FFE0346002B02D10023FB7744
:1046200008E019F0EFFE02467B69D31A47F22F52D9
:104630009342EED9FB7F18462037BD4680BD00BFB0
:10464000FC0B002480B58CB000AF03463A60FB71D0
:104650000B46BB71012387F82F30254B1B78DBB24B
:1046600003F00103002B01D003233CE0BB79032BB3
:1046700034D801A252F823F0894600089146000878
:10468000A9460008C3460008002387F82F3028E019
:1046900007F108031846FFF76DFE3A6A3B681A6097
:1046A000002387F82F301CE007F108031846FFF7B6
:1046B00061FE7B6A9AB23B681A80002387F82F302C
:1046C0000FE007F108031846FFF754FE7B6A5A0A09
:1046D0003B681A60002387F82F3002E0042387F834
:1046E0002F3097F82F3018463037BD4680BD00BFB9
:1046F0000400002480B582B000AF0223FB80054B8C
:104700001868B91D002300221AF0E0F900BF08372D
:10471000BD4680BDFC0B002480B582B000AF0123F4
:10472000FB80054B1868B91D002300221AF0CEF952
:1047300000BF0837BD4680BDFC0B0024DFF834D035
:1047400006F096FA0C480D490D4A002302E0D458B1
:10475000C4500433C4188C42F9D30A4A0A4C0023CB
:1047600001E013600432A242FBD32FF02FF9FDF7D2
:10477000CBFE704700000824000000242401002420
:10478000D07703082401002484E70224FEE780B4E4
:1047900000AF00BFBD465DF8047B704780B500AF39
:1047A00002F004FF02F0D8FE00BF80BD80B582B0E9
:1047B00000AF786002F002FF00BF0837BD4680BD41
:1047C00080B483B000AF7860044A7B681A607B686D
:1047D00018460C37BD465DF8047B704760640308DB
:1047E00080B582B000AF78607868FFF7E9FF0421F8
:1047F00078682EF0A6FD7B6818460837BD4680BD58
:1048000080B582B000AF786001224FF48041124839
:1048100009F006FE642006F021FB00224FF48041DF
:104820000D4809F0FDFD642006F018FB01224FF44D
:104830008041094809F0F4FD4FF47A7006F00EFB50
:1048400000220721092007F095FC092007F0ACFCA5
:1048500000BF0837BD4680BD0008025880B58AB049
:1048600002AFF860B9607A6000233B6107F114037E
:1048700000221A605A609A602D4B1B78DBB2002B25
:1048800014BF01230023DBB2002B4CD0284B0022A5
:104890001A7007F110026423009310238221254827
:1048A0000BF096FB0346002B14BF01230023DBB261
:1048B000002B01D0002337E03B7C482B31D11E4B2D
:1048C00000221A60FB7C03F00F031B4A13601A4B93
:1048D0001B681B02184A1360BB7C1A46164B1B68E8
:1048E0001343154A1360154B00221A607B7D03F0B9
:1048F0000F03124A1360114B1B681B020F4A13600F
:104900003B7D1A460D4B1B6813430C4A13600A4B40
:104910001A68BB681A60094B1A687B681A60012321
:1049200002E0002300E0002318462037BD4680BD8A
:10493000000C00247C040024040C0024080C002437
:1049400080B483B000AF0346FB80FB88082B02D104
:10495000044B01221A7000BF0C37BD465DF8047B82
:10496000704700BF000C002480B582B000AF7860B3
:10497000054A7B681A607B681846FFF721FF7B6851
:1049800018460837BD4680BD4864030880B582B02C
:1049900000AF78607868FFF7E7FF042178682EF0B1
:1049A000D0FC7B6818460837BD4680BD80B400AF98
:1049B00000BFBD465DF8047B7047000080B483B043
:1049C00000AF0346FB71FB79032B0CD801A252F810
:1049D00023F000BFE5490008E5490008E549000863
:1049E000E549000800BF00BF0C37BD465DF8047BF9
:1049F000704700BF80B483B000AF0346FB71FB7902
:104A0000032B0CD801A252F823F000BF1D4A000866
:104A10001D4A00081D4A00081D4A000800BF00BFCB
:104A20000C37BD465DF8047B704700BF80B483B08F
:104A300000AF0346FB71FB79032B0CD801A252F89F
:104A400023F000BF554A0008554A0008554A00089F
:104A5000554A000800BF00BF0C37BD465DF8047B17
:104A6000704700BF80B483B000AF7860044A7B68B1
:104A70001A607B6818460C37BD465DF8047B7047AA
:104A8000BC6F030880B582B000AF78607868FFF72C
:104A9000E9FF7C2178682EF054FC7B6818460837C3
:104AA000BD4680BD80B483B000AF78600B46FB701C
:104AB0007B68FA7883F878207B68012283F8792074
:104AC00000BF0C37BD465DF8047B704780B582B0EF
:104AD00000AF78600B467B8013463B800C4B1B88F5
:104AE0007A889A4204D30B4B1B883A889A4205D2A3
:104AF000094B0A4A9E210A482EF052FC094A7B883B
:104B00001380094A3B88138000BF0837BD4680BD2B
:104B100068DB02246ADB02240445030868450308B5
:104B2000AC4503086EDB022470DB022480B582B042
:104B300000AF78607B6893F87A30002B09D07B68EF
:104B40005A687B685B681B681B6810469847034679
:104B500000E0002318460837BD4680BD80B582B00E
:104B600000AF7860786821F009FB7B681B68AC3384
:104B70001B687868984700BF0837BD4680BD80B481
:104B800083B000AF78603960002318460C37BD460B
:104B90005DF8047B7047000080B584B000AFF8601A
:104BA000B9607A603B60BB68002B06D10F4B104A9E
:104BB00040F2D2210F482EF0F3FBFB68BA68DA63AB
:104BC000FB687A681A647B68002B14BF01230023FA
:104BD000DAB2094B1A70FB681B688C331B683968A2
:104BE000F868984700BF1037BD4680BD00460308EF
:104BF00038460308AC45030872DB022480B483B056
:104C000000AF786039607B683A685A643B68002B73
:104C100014BF01230023DAB2034B1A7000BF0C3714
:104C2000BD465DF8047B704773DB022480B483B01B
:104C300000AF7860002318460C37BD465DF8047B52
:104C4000704780B582B000AF78600B467B807B6890
:104C50009B6B002B04D07B689B6B7A88104698472F
:104C600000BF0837BD4680BD80B483B000AF786018
:104C70004FF6FF7318460C37BD465DF8047B70474E
:104C800080B582B000AF78607B685A687B685B68EB
:104C90001B6818331B6810469847034618460837A8
:104CA000BD4680BD80B485B000AF78607B6893F866
:104CB00078207B6893F834309A4211D0144B1B78DB
:104CC000002B1ED1134B1B88BB81134B1A88114B31
:104CD0001A80114ABB8913800D4B01221A7010E013
:104CE0000B4B1B78002B0CD00A4B1B88FB810A4B0B
:104CF0001A88084B1A80084AFB891380044B00224B
:104D00001A7000BF1437BD465DF8047B704700BFC2
:104D10006CDB02246ADB022468DB022480B582B0EB
:104D200000AF78607B68184620F086FC00BF08372B
:104D3000BD4680BD80B582B000AF78607B68184604
:104D400020F0B2FD7B685A687B685B681B68103393
:104D50001B681046984700BF0837BD4680BD00005D
:104D600080B582B000AF7860054A7B681A607B68C6
:104D70001846FFF777FE7B6818460837BD4680BDAA
:104D8000FC68030880B582B000AF78607868FFF7F0
:104D9000E7FF7C2178682EF0D4FA7B681846083744
:104DA000BD4680BD80B582B000AF78607B68184694
:104DB000FFF7B4FF00BF0837BD4680BD80B582B0A5
:104DC00000AF78607B68184602F048FF00BF0837E4
:104DD000BD4680BD80B582B000AF78607B68184664
:104DE00002F0FAFF034618460837BD4680BD80B57D
:104DF00082B000AF786039607B683968184602F08D
:104E0000F9FF00BF0837BD4680BD80B582B000AF56
:104E1000786039607B683968184603F001F800BF94
:104E20000837BD4680BD80B584B000AFF860B9607A
:104E30007A603B60F8683B687A68B96802F0FEFF08
:104E4000034618461037BD4680BD80B582B000AF1E
:104E500078607B68184602F03DFF00BF0837BD460A
:104E600080BD80B582B000AF78607B68184602F0E4
:104E700041FF00BF0837BD4680BD80B582B000AF9E
:104E800078607B68184602F043FF00BF0837BD46D4
:104E900080BD80B582B000AF78607B68184602F0B4
:104EA00045FF00BF0837BD4680BD80B582B000AF6A
:104EB00078607B68184602F067FF0346184608379B
:104EC000BD4680BD80B582B000AF78607B68184673
:104ED00002F068FF00BF0837BD4680BD80B582B0D4
:104EE00000AF7860054A7B681A607B681846FFF758
:104EF00037FF7B6818460837BD4680BD78640308D5
:104F000080B582B000AF78607868FFF7E7FF7C215A
:104F100078682EF016FA7B6818460837BD4680BDC3
:104F200080B483B000AF7860044A7B681A607B6805
:104F300018460C37BD465DF8047B7047946503083E
:104F400080B582B000AF78607868FFF7E9FF042190
:104F500078682EF0F6F97B6818460837BD4680BDA4
:104F600080B483B000AF78607B681B7A18460C373A
:104F7000BD465DF8047B704780B483B000AF7860B5
:104F80007B689B7ADBB218460C37BD465DF8047B24
:104F9000704780B483B000AF78607B685B69184667
:104FA0000C37BD465DF8047B704780B483B000AF1A
:104FB00078607B6893F8403018460C37BD465DF842
:104FC000047B704780B483B000AF7860044A7B688C
:104FD0001A607B6818460C37BD465DF8047B704745
:104FE0009465030880B582B000AF78607B6818468E
:104FF000FFF7E8FF204A7B681A607B6800225A614D
:105000007B6800229A617B680022DA617B6800225B
:105010001A627B6800225A627B6800229A627B686F
:105020000022DA627B6800221A637B6800225A63DE
:105030007B6800229A637B680022DA637B68002227
:1050400083F840207B6800221A617B680022DA60C6
:105050007B6800225A607B6800229A60002200214F
:10506000012019F0A0FB0346044A13607B68184630
:105070000837BD4680BD00BF5065030838A2002434
:1050800080B586B000AFF860B9607A603B60FB68BD
:105090001B6B002B08D0FB685A6BFB68DB6BB96895
:1050A000CB1A13447B6104E0FB68DA6ABB681344E3
:1050B0007B613A68796878692EF07FFB0346184671
:1050C0001837BD4680BD80B487B000AF78603960C6
:1050D0007B681B6B002B24D07B68DB6B3A68D31A90
:1050E000FB607B685A6BFB6813441B7819467B682E
:1050F0005A6BFB68013313441B781B0241EA03021D
:105100007B68596BFB6802330B441B781B041A4302
:105110007B68596BFB6803330B441B781B061343F6
:1051200029E07B68DA6A3B6813447B6100233B61BA
:105130007B691B78DBB21A463B6913433B617B6991
:1051400001331B78DBB21B021A463B6913433B61F8
:105150007B6902331B78DBB21B041A463B6913439D
:105160003B617B6903331B78DBB21B061A463B6944
:1051700013433B613B6918461C37BD465DF8047B11
:10518000704780B487B000AF786039607B681B6B74
:10519000002B13D07B68DB6B3A68D31AFB607B680B
:1051A0005A6BFB6813441B7819467B685A6BFB6883
:1051B000013313441B781B020B4317E07B68DA6A48
:1051C0003B6813447B6100233B617B691B78DBB246
:1051D0001A463B6913433B617B6901331B78DBB2A1
:1051E0001B021A463B6913433B613B6918461C3757
:1051F000BD465DF8047B704780B584B000AFF860B1
:10520000B9607A60FB681B6B002B33D0FB689B6B2B
:105210007A689A4209D9FB68092283F84020194B21
:10522000194A9E2119482EF0BBF8FB681A6BFB68DF
:105230001B6B1B680C331B68B96810469847FB68EA
:10524000186BFB681B6B1B6810331B68FA68516B8B
:105250007A689847034683F00103DBB2002B03D042
:10526000FB680D2283F84020FB68BA68DA63FB68AC
:105270005B6B03E0FB68DA6ABB68134418461037BF
:10528000BD4680BD884603089C460308E0460308E7
:1052900080B58EB004AFF860B96011461A460B466F
:1052A000FB801346BB80FB685B69002B05D14E4B2E
:1052B0004E4AB0214E482EF073F8FB689B690822D5
:1052C0001946F868FFF798FFFB689B691946F8686C
:1052D000FFF757FF3862FB689B6902331946F8688D
:1052E000FFF74FFFF861FB689B6904331946F868C4
:1052F000FFF7E9FEB86143F23003FB8246F2643304
:10530000BB82FB689A69BB69134403F10802FB681E
:105310009B6A9A4255D23B6A43F23002934226D1AD
:10532000FB6946F26432934221D1BB69002B1ED047
:10533000FB689B6903F10802FB689A61FB689B6943
:10534000BA691946F868FFF757FF38613B6B02935B
:10535000BB880193FB880093BB68BA693969F86818
:1053600000F08EFAFB685B695A1CFB685A610023E7
:1053700087F82730FB689A69BB691A44FB689A6111
:10538000BB69002B05D1FB689B6903F10802FB6830
:105390009A61FB689B69013323F00102FB689A6103
:1053A000FB689A69FB685B6A9A4214D1FB68012228
:1053B0005A61FB681A6AFB689A61012387F82730F3
:1053C00009E0FB6801225A61FB681A6AFB689A616E
:1053D000012387F8273097F8273083F00103DBB2E9
:1053E00018462837BD4680BD4C4703089847030838
:1053F000E046030880B586B000AF78607B685B69E3
:10540000002B05D1374B384AE42138482DF0C8FF2E
:105410007B689B69082219467868FFF7EDFE7B6878
:105420009B69043319467868FFF74DFE786143E0C5
:105430007B689A697B69134403F108027B689A616F
:105440007B689B69013323F001027B689A617B686A
:105450005B695A1C7B685A617B689B690822194604
:105460007868FFF7C9FE7B689B6919467868FFF783
:1054700088FE38617B689B69023319467868FFF7BC
:1054800080FEF8607B689B69043319467868FFF7F3
:105490001AFE786143F230037B8146F264333B812C
:1054A0003B6943F23002934206D1FB6846F2643214
:1054B000934201D1012311E07B689A697B6913440F
:1054C00003F108027B689B6A9A42B1D37B68012290
:1054D0005A617B681A6A7B689A61002318461837FC
:1054E000BD4680BD4C470308F4470308E046030867
:1054F00080B584B000AFF860B9607A60FB68BA68C4
:10550000DA62FB687A689A62FB6800221A63F868BC
:1055100000F034F800BF1037BD4680BD80B582B0C2
:1055200000AF786039607B683A681A637B68002254
:10553000DA623B681B6808331B6838689847024684
:105540007B689A62786800F019F800BF0837BD469A
:1055500080BD80B483B000AF78607B681B6B002B8C
:1055600003D17B68DB6A002B01D0012300E000231C
:1055700018460C37BD465DF8047B704780B58AB08D
:1055800000AF78607B6800229A617B68002283F814
:105590004020482200217868FFF72EFE7B68996939
:1055A0000423A54A7868FFF76BFD0346002B14BF60
:1055B00001230023DBB2002B0AD07B68032283F88F
:1055C00040209E4B9E4A4FF496719E482DF0E8FE77
:1055D0007B689B6903F108027B689A617B68996923
:1055E0000423994A7868FFF74BFD0346002B14BF4C
:1055F00001230023DBB2002B0AD07B68042283F84E
:105600004020924B8E4A4FF49A718E482DF0C8FE7E
:105610007B689B691A1D7B689A617B689969042382
:105620008B4A7868FFF72CFD0346002B14BF01233B
:105630000023DBB2002B0AD07B68052283F84020D0
:10564000844B7F4A40F23B117E482DF0A9FE7B68D7
:105650009B69043319467868FFF735FDF8617B686C
:105660009B69BB61FB69002B06D17B4B744A40F2FE
:10567000411174482DF094FE012387F827307B6890
:105680009B6908337B610423744A79697868FFF762
:10569000F7FC0346002B14BF01230023DBB2002BD1
:1056A00006D07B68062283F84020002387F8273045
:1056B0007B6904337B610423694A79697868FFF761
:1056C000DFFC0346002B14BF01230023DBB2002BB9
:1056D00006D07B68072283F84020002387F8273014
:1056E00097F82730002B28D07B6908337B617969D4
:1056F0007868FFF7E8FC03465A4AA2FB03239A099D
:105700007B685A607B69103319467868FFF7DBFCC9
:1057100002467B689A607B69203319467868FFF7F8
:10572000D2FC02467B68DA607B69243319467868CC
:10573000FFF7C9FC02467B681A61BA69FB6913442A
:1057400008333B620C22396A7868FFF755FD11E097
:105750003B6A043319467868FFF7B5FC0346083303
:10576000FB603A6AFB6813443B620C22396A786832
:10577000FFF742FD3B6A03F1080104233A4A7868C7
:10578000FFF77EFC0346002B0BD07B6893F840307C
:10579000002B06D17B689B6A3A6A9A4201D20123A8
:1057A00000E00023002BD3D17B6893F84030002B1E
:1057B00004D07B680A2283F840205EE03B6A03F154
:1057C0000C027B689A613B6A043319467868FFF7DC
:1057D0007AFC02463B6A134403F108027B685A6272
:1057E0003B6A043319467868FFF76DFC03460833BB
:1057F0003B613A6A3B6913443B620422396A786828
:10580000FFF7FAFC0423194A396A7868FFF738FC75
:105810000346002B0CBF01230023DBB2002B27D053
:105820007B683A6ADA617B6801225A617B689A690F
:105830007B681A6221E000BF28480308304803084B
:105840004C480308E04603087C48030884480308E2
:105850009C480308A4480308BC480308C848030838
:10586000D0480308D34D6210D8480308E048030825
:105870007B680B2283F8402000BF2837BD4680BDDF
:1058800080B584B000AFF860B9607A603B607B6837
:10589000002B5BD03B68002B59D02E4B03221A61A2
:1058A000FB68DB682B4A13602A4B1B6803F00F036D
:1058B000002B06D0274B1B6823F00F031033254A1B
:1058C0001360244B1B694FF4487202FB03F3214A17
:1058D0005360204B1B681B091E4AD360FB681B6981
:1058E00003F00F03C3F110031A4A93603B687A6810
:1058F000B968194800F0FAF8FB685B6C174A136046
:10590000154800F0B5FA0346154A1360144B1B689E
:10591000022B0CBF01230023DBB2002B06D0114B5E
:105920001B684FF0FF31184618F0C6FF0C4B1B6880
:10593000012B14BF01230023DBB2002BE0D10A4B63
:1059400000221A60094B00221A6000E000BF1037E5
:10595000BD4680BD44A20024780500242C0C002400
:10596000240C002438A200241C0C002440A2002493
:1059700080B586B000AFF860B9607A603B60FB68C4
:105980009B6908221946F868FFF736FCFB689B699B
:1059900004331946F868FFF796FB7861FB689B694A
:1059A00008337A691946F868FFF726FC38617B6886
:1059B000002B14D07B687A6939690B4800F096F89F
:1059C000094800F055FA0346084A1360074B1B6864
:1059D000002B0CBF01230023DBB2002BF0D10123ED
:1059E00018461837BD4680BD78050024240C0024D5
:1059F00080B584B000AFF860B9607A607B80034BFB
:105A0000034A40F2C51103482DF0CAFCE8480308D8
:105A1000EC480308E046030880B584B000AF786026
:105A200039603B68002B01D101233B607B681B6818
:105A30002C331B687868984702463B6893428CBFBA
:105A400001230023DBB2002B06D07B681B682C33BC
:105A50001B687868984738607B68DA693B68013B67
:105A60001B0113440833FB601022F9687868FFF7C4
:105A7000C3FBFB68083319467868FFF724FB02462E
:105A80007B681B6A13441A1F7B689A617B683A68BB
:105A90005A6100BF1037BD4680BD80B483B000AFEF
:105AA00078607B689B6818460C37BD465DF8047BC0
:105AB000704780B483B000AF78600B46FB7000BFC6
:105AC0000C37BD465DF8047B704790B482B000AFE0
:105AD000786039603A687B68144604330FCB84E8F9
